{
    "_format": "hh-sol-artifact-1",
    "contractName": "MyEpicNFT",
    "sourceName": "contracts/MyEpicNFT.sol",
    "abi": [
        {
            "inputs": [],
            "stateMutability": "nonpayable",
            "type": "constructor"
        },
        {
            "anonymous": false,
            "inputs": [
                {
                    "indexed": true,
                    "internalType": "address",
                    "name": "owner",
                    "type": "address"
                },
                {
                    "indexed": true,
                    "internalType": "address",
                    "name": "approved",
                    "type": "address"
                },
                {
                    "indexed": true,
                    "internalType": "uint256",
                    "name": "tokenId",
                    "type": "uint256"
                }
            ],
            "name": "Approval",
            "type": "event"
        },
        {
            "anonymous": false,
            "inputs": [
                {
                    "indexed": true,
                    "internalType": "address",
                    "name": "owner",
                    "type": "address"
                },
                {
                    "indexed": true,
                    "internalType": "address",
                    "name": "operator",
                    "type": "address"
                },
                {
                    "indexed": false,
                    "internalType": "bool",
                    "name": "approved",
                    "type": "bool"
                }
            ],
            "name": "ApprovalForAll",
            "type": "event"
        },
        {
            "anonymous": false,
            "inputs": [
                {
                    "indexed": false,
                    "internalType": "address",
                    "name": "sender",
                    "type": "address"
                },
                {
                    "indexed": false,
                    "internalType": "uint256",
                    "name": "tokenId",
                    "type": "uint256"
                },
                {
                    "indexed": false,
                    "internalType": "uint256",
                    "name": "_tokenIds",
                    "type": "uint256"
                }
            ],
            "name": "NewEpicNFTMinted",
            "type": "event"
        },
        {
            "anonymous": false,
            "inputs": [
                {
                    "indexed": true,
                    "internalType": "address",
                    "name": "from",
                    "type": "address"
                },
                {
                    "indexed": true,
                    "internalType": "address",
                    "name": "to",
                    "type": "address"
                },
                {
                    "indexed": true,
                    "internalType": "uint256",
                    "name": "tokenId",
                    "type": "uint256"
                }
            ],
            "name": "Transfer",
            "type": "event"
        },
        {
            "inputs": [
                {
                    "internalType": "address",
                    "name": "to",
                    "type": "address"
                },
                {
                    "internalType": "uint256",
                    "name": "tokenId",
                    "type": "uint256"
                }
            ],
            "name": "approve",
            "outputs": [],
            "stateMutability": "nonpayable",
            "type": "function"
        },
        {
            "inputs": [
                {
                    "internalType": "address",
                    "name": "owner",
                    "type": "address"
                }
            ],
            "name": "balanceOf",
            "outputs": [
                {
                    "internalType": "uint256",
                    "name": "",
                    "type": "uint256"
                }
            ],
            "stateMutability": "view",
            "type": "function"
        },
        {
            "inputs": [
                {
                    "internalType": "uint256",
                    "name": "tokenId",
                    "type": "uint256"
                }
            ],
            "name": "getApproved",
            "outputs": [
                {
                    "internalType": "address",
                    "name": "",
                    "type": "address"
                }
            ],
            "stateMutability": "view",
            "type": "function"
        },
        {
            "inputs": [
                {
                    "internalType": "address",
                    "name": "owner",
                    "type": "address"
                },
                {
                    "internalType": "address",
                    "name": "operator",
                    "type": "address"
                }
            ],
            "name": "isApprovedForAll",
            "outputs": [
                {
                    "internalType": "bool",
                    "name": "",
                    "type": "bool"
                }
            ],
            "stateMutability": "view",
            "type": "function"
        },
        {
            "inputs": [],
            "name": "makeAnEpicNFT",
            "outputs": [],
            "stateMutability": "nonpayable",
            "type": "function"
        },
        {
            "inputs": [],
            "name": "name",
            "outputs": [
                {
                    "internalType": "string",
                    "name": "",
                    "type": "string"
                }
            ],
            "stateMutability": "view",
            "type": "function"
        },
        {
            "inputs": [
                {
                    "internalType": "uint256",
                    "name": "tokenId",
                    "type": "uint256"
                }
            ],
            "name": "ownerOf",
            "outputs": [
                {
                    "internalType": "address",
                    "name": "",
                    "type": "address"
                }
            ],
            "stateMutability": "view",
            "type": "function"
        },
        {
            "inputs": [
                {
                    "internalType": "uint256",
                    "name": "tokenId",
                    "type": "uint256"
                }
            ],
            "name": "pickRandomFirstWord",
            "outputs": [
                {
                    "internalType": "string",
                    "name": "",
                    "type": "string"
                }
            ],
            "stateMutability": "view",
            "type": "function"
        },
        {
            "inputs": [
                {
                    "internalType": "uint256",
                    "name": "tokenId",
                    "type": "uint256"
                }
            ],
            "name": "pickRandomFourthWord",
            "outputs": [
                {
                    "internalType": "string",
                    "name": "",
                    "type": "string"
                }
            ],
            "stateMutability": "view",
            "type": "function"
        },
        {
            "inputs": [
                {
                    "internalType": "uint256",
                    "name": "tokenId",
                    "type": "uint256"
                }
            ],
            "name": "pickRandomSecondWord",
            "outputs": [
                {
                    "internalType": "string",
                    "name": "",
                    "type": "string"
                }
            ],
            "stateMutability": "view",
            "type": "function"
        },
        {
            "inputs": [
                {
                    "internalType": "uint256",
                    "name": "tokenId",
                    "type": "uint256"
                }
            ],
            "name": "pickRandomThirdWord",
            "outputs": [
                {
                    "internalType": "string",
                    "name": "",
                    "type": "string"
                }
            ],
            "stateMutability": "view",
            "type": "function"
        },
        {
            "inputs": [
                {
                    "internalType": "address",
                    "name": "from",
                    "type": "address"
                },
                {
                    "internalType": "address",
                    "name": "to",
                    "type": "address"
                },
                {
                    "internalType": "uint256",
                    "name": "tokenId",
                    "type": "uint256"
                }
            ],
            "name": "safeTransferFrom",
            "outputs": [],
            "stateMutability": "nonpayable",
            "type": "function"
        },
        {
            "inputs": [
                {
                    "internalType": "address",
                    "name": "from",
                    "type": "address"
                },
                {
                    "internalType": "address",
                    "name": "to",
                    "type": "address"
                },
                {
                    "internalType": "uint256",
                    "name": "tokenId",
                    "type": "uint256"
                },
                {
                    "internalType": "bytes",
                    "name": "_data",
                    "type": "bytes"
                }
            ],
            "name": "safeTransferFrom",
            "outputs": [],
            "stateMutability": "nonpayable",
            "type": "function"
        },
        {
            "inputs": [
                {
                    "internalType": "address",
                    "name": "operator",
                    "type": "address"
                },
                {
                    "internalType": "bool",
                    "name": "approved",
                    "type": "bool"
                }
            ],
            "name": "setApprovalForAll",
            "outputs": [],
            "stateMutability": "nonpayable",
            "type": "function"
        },
        {
            "inputs": [
                {
                    "internalType": "bytes4",
                    "name": "interfaceId",
                    "type": "bytes4"
                }
            ],
            "name": "supportsInterface",
            "outputs": [
                {
                    "internalType": "bool",
                    "name": "",
                    "type": "bool"
                }
            ],
            "stateMutability": "view",
            "type": "function"
        },
        {
            "inputs": [],
            "name": "symbol",
            "outputs": [
                {
                    "internalType": "string",
                    "name": "",
                    "type": "string"
                }
            ],
            "stateMutability": "view",
            "type": "function"
        },
        {
            "inputs": [
                {
                    "internalType": "uint256",
                    "name": "tokenId",
                    "type": "uint256"
                }
            ],
            "name": "tokenURI",
            "outputs": [
                {
                    "internalType": "string",
                    "name": "",
                    "type": "string"
                }
            ],
            "stateMutability": "view",
            "type": "function"
        },
        {
            "inputs": [
                {
                    "internalType": "address",
                    "name": "from",
                    "type": "address"
                },
                {
                    "internalType": "address",
                    "name": "to",
                    "type": "address"
                },
                {
                    "internalType": "uint256",
                    "name": "tokenId",
                    "type": "uint256"
                }
            ],
            "name": "transferFrom",
            "outputs": [],
            "stateMutability": "nonpayable",
            "type": "function"
        }
    ],
    "bytecode": "0x608060405260405180610160016040528061012f81526020016200469b61012f9139600890805190602001906200003892919062000624565b5060405180608001604052806040518060400160405280600181526020017f590000000000000000000000000000000000000000000000000000000000000081525081526020016040518060400160405280600181526020017f550000000000000000000000000000000000000000000000000000000000000081525081526020016040518060400160405280600181526020017f4b0000000000000000000000000000000000000000000000000000000000000081525081526020016040518060400160405280600181526020017f4900000000000000000000000000000000000000000000000000000000000000815250815250600990600462000140929190620006b5565b5060405180608001604052806040518060400160405280600181526020017f590000000000000000000000000000000000000000000000000000000000000081525081526020016040518060400160405280600181526020017f550000000000000000000000000000000000000000000000000000000000000081525081526020016040518060400160405280600181526020017f4b0000000000000000000000000000000000000000000000000000000000000081525081526020016040518060400160405280600181526020017f4900000000000000000000000000000000000000000000000000000000000000815250815250600a90600462000248929190620006b5565b5060405180608001604052806040518060400160405280600181526020017f590000000000000000000000000000000000000000000000000000000000000081525081526020016040518060400160405280600181526020017f550000000000000000000000000000000000000000000000000000000000000081525081526020016040518060400160405280600181526020017f4b0000000000000000000000000000000000000000000000000000000000000081525081526020016040518060400160405280600181526020017f4900000000000000000000000000000000000000000000000000000000000000815250815250600b90600462000350929190620006b5565b5060405180608001604052806040518060400160405280600181526020017f590000000000000000000000000000000000000000000000000000000000000081525081526020016040518060400160405280600181526020017f550000000000000000000000000000000000000000000000000000000000000081525081526020016040518060400160405280600181526020017f4b0000000000000000000000000000000000000000000000000000000000000081525081526020016040518060400160405280600181526020017f4900000000000000000000000000000000000000000000000000000000000000815250815250600c90600462000458929190620006b5565b503480156200046657600080fd5b506040518060400160405280600981526020017f5371756172654e465400000000000000000000000000000000000000000000008152506040518060400160405280600681526020017f53515541524500000000000000000000000000000000000000000000000000008152508160009080519060200190620004eb92919062000624565b5080600190805190602001906200050492919062000624565b505050620005526040518060400160405280601881526020017f54686973206973206d79204e465420636f6e74726163742e00000000000000008152506200055860201b620013421760201c565b620008d6565b620005f8816040516024016200056f9190620007ea565b6040516020818303038152906040527f41304fac000000000000000000000000000000000000000000000000000000007bffffffffffffffffffffffffffffffffffffffffffffffffffffffff19166020820180517bffffffffffffffffffffffffffffffffffffffffffffffffffffffff8381831617835250505050620005fb60201b60201c565b50565b60008151905060006a636f6e736f6c652e6c6f679050602083016000808483855afa5050505050565b828054620006329062000860565b90600052602060002090601f016020900481019282620006565760008555620006a2565b82601f106200067157805160ff1916838001178555620006a2565b82800160010185558215620006a2579182015b82811115620006a157825182559160200191906001019062000684565b5b509050620006b191906200071c565b5090565b82805482825590600052602060002090810192821562000709579160200282015b8281111562000708578251829080519060200190620006f792919062000624565b5091602001919060010190620006d6565b5b5090506200071891906200073b565b5090565b5b80821115620007375760008160009055506001016200071d565b5090565b5b808211156200075f576000818162000755919062000763565b506001016200073c565b5090565b508054620007719062000860565b6000825580601f10620007855750620007a6565b601f016020900490600052602060002090810190620007a591906200071c565b5b50565b6000620007b6826200080e565b620007c2818562000819565b9350620007d48185602086016200082a565b620007df81620008c5565b840191505092915050565b60006020820190508181036000830152620008068184620007a9565b905092915050565b600081519050919050565b600082825260208201905092915050565b60005b838110156200084a5780820151818401526020810190506200082d565b838111156200085a576000848401525b50505050565b600060028204905060018216806200087957607f821691505b6020821081141562000890576200088f62000896565b5b50919050565b7f4e487b7100000000000000000000000000000000000000000000000000000000600052602260045260246000fd5b6000601f19601f8301169050919050565b613db580620008e66000396000f3fe608060405234801561001057600080fd5b50600436106101165760003560e01c80638f8d7a14116100a2578063b88d4fde11610071578063b88d4fde14610317578063c575757a14610333578063c87b56dd14610363578063de9d132f14610393578063e985e9c51461039d57610116565b80638f8d7a141461027d57806395d89b41146102ad578063a22cb465146102cb578063b187301f146102e757610116565b806323b872dd116100e957806323b872dd146101b55780632de38d68146101d157806342842e0e146102015780636352211e1461021d57806370a082311461024d57610116565b806301ffc9a71461011b57806306fdde031461014b578063081812fc14610169578063095ea7b314610199575b600080fd5b6101356004803603810190610130919061280a565b6103cd565b6040516101429190612f74565b60405180910390f35b6101536104af565b6040516101609190612f8f565b60405180910390f35b610183600480360381019061017e919061285c565b610541565b6040516101909190612ed6565b60405180910390f35b6101b360048036038101906101ae91906127ce565b6105c6565b005b6101cf60048036038101906101ca91906126c8565b6106de565b005b6101eb60048036038101906101e6919061285c565b61073e565b6040516101f89190612f8f565b60405180910390f35b61021b600480360381019061021691906126c8565b6108da565b005b6102376004803603810190610232919061285c565b6108fa565b6040516102449190612ed6565b60405180910390f35b61026760048036038101906102629190612663565b6109ac565b604051610274919061321f565b60405180910390f35b6102976004803603810190610292919061285c565b610a64565b6040516102a49190612f8f565b60405180910390f35b6102b5610b82565b6040516102c29190612f8f565b60405180910390f35b6102e560048036038101906102e09190612792565b610c14565b005b61030160048036038101906102fc919061285c565b610c2a565b60405161030e9190612f8f565b60405180910390f35b610331600480360381019061032c9190612717565b610d48565b005b61034d6004803603810190610348919061285c565b610daa565b60405161035a9190612f8f565b60405180910390f35b61037d6004803603810190610378919061285c565b610ec8565b60405161038a9190612f8f565b60405180910390f35b61039b61101a565b005b6103b760048036038101906103b2919061268c565b6112ae565b6040516103c49190612f74565b60405180910390f35b60007f80ac58cd000000000000000000000000000000000000000000000000000000007bffffffffffffffffffffffffffffffffffffffffffffffffffffffff1916827bffffffffffffffffffffffffffffffffffffffffffffffffffffffff1916148061049857507f5b5e139f000000000000000000000000000000000000000000000000000000007bffffffffffffffffffffffffffffffffffffffffffffffffffffffff1916827bffffffffffffffffffffffffffffffffffffffffffffffffffffffff1916145b806104a857506104a7826113db565b5b9050919050565b6060600080546104be906134b3565b80601f01602080910402602001604051908101604052809291908181526020018280546104ea906134b3565b80156105375780601f1061050c57610100808354040283529160200191610537565b820191906000526020600020905b81548152906001019060200180831161051a57829003601f168201915b5050505050905090565b600061054c82611445565b61058b576040517f08c379a00000000000000000000000000000000000000000000000000000000081526004016105829061319f565b60405180910390fd5b6004600083815260200190815260200160002060009054906101000a900473ffffffffffffffffffffffffffffffffffffffff169050919050565b60006105d1826108fa565b90508073ffffffffffffffffffffffffffffffffffffffff168373ffffffffffffffffffffffffffffffffffffffff161415610642576040517f08c379a0000000000000000000000000000000000000000000000000000000008152600401610639906131df565b60405180910390fd5b8073ffffffffffffffffffffffffffffffffffffffff166106616114b1565b73ffffffffffffffffffffffffffffffffffffffff161480610690575061068f8161068a6114b1565b6112ae565b5b6106cf576040517f08c379a00000000000000000000000000000000000000000000000000000000081526004016106c6906130df565b60405180910390fd5b6106d983836114b9565b505050565b6106ef6106e96114b1565b82611572565b61072e576040517f08c379a0000000000000000000000000000000000000000000000000000000008152600401610725906131ff565b60405180910390fd5b610739838383611650565b505050565b6060600061077261074e846118b7565b60405160200161075e9190612e92565b604051602081830303815290604052611a64565b90506107b36040518060400160405280600d81526020017f72616e64202d20736565643a200000000000000000000000000000000000000081525082611a97565b600980549050816107c4919061355f565b90506108056040518060400160405280601381526020017f72616e64202d20666972737420776f72643a200000000000000000000000000081525082611a97565b6009818154811061083f577f4e487b7100000000000000000000000000000000000000000000000000000000600052603260045260246000fd5b906000526020600020018054610854906134b3565b80601f0160208091040260200160405190810160405280929190818152602001828054610880906134b3565b80156108cd5780601f106108a2576101008083540402835291602001916108cd565b820191906000526020600020905b8154815290600101906020018083116108b057829003601f168201915b5050505050915050919050565b6108f583838360405180602001604052806000815250610d48565b505050565b6000806002600084815260200190815260200160002060009054906101000a900473ffffffffffffffffffffffffffffffffffffffff169050600073ffffffffffffffffffffffffffffffffffffffff168173ffffffffffffffffffffffffffffffffffffffff1614156109a3576040517f08c379a000000000000000000000000000000000000000000000000000000000815260040161099a9061311f565b60405180910390fd5b80915050919050565b60008073ffffffffffffffffffffffffffffffffffffffff168273ffffffffffffffffffffffffffffffffffffffff161415610a1d576040517f08c379a0000000000000000000000000000000000000000000000000000000008152600401610a14906130ff565b60405180910390fd5b600360008373ffffffffffffffffffffffffffffffffffffffff1673ffffffffffffffffffffffffffffffffffffffff168152602001908152602001600020549050919050565b60606000610a98610a74846118b7565b604051602001610a849190612de7565b604051602081830303815290604052611a64565b9050600c8054905081610aab919061355f565b9050600c8181548110610ae7577f4e487b7100000000000000000000000000000000000000000000000000000000600052603260045260246000fd5b906000526020600020018054610afc906134b3565b80601f0160208091040260200160405190810160405280929190818152602001828054610b28906134b3565b8015610b755780601f10610b4a57610100808354040283529160200191610b75565b820191906000526020600020905b815481529060010190602001808311610b5857829003601f168201915b5050505050915050919050565b606060018054610b91906134b3565b80601f0160208091040260200160405190810160405280929190818152602001828054610bbd906134b3565b8015610c0a5780601f10610bdf57610100808354040283529160200191610c0a565b820191906000526020600020905b815481529060010190602001808311610bed57829003601f168201915b5050505050905090565b610c26610c1f6114b1565b8383611b33565b5050565b60606000610c5e610c3a846118b7565b604051602001610c4a9190612e2b565b604051602081830303815290604052611a64565b9050600a8054905081610c71919061355f565b9050600a8181548110610cad577f4e487b7100000000000000000000000000000000000000000000000000000000600052603260045260246000fd5b906000526020600020018054610cc2906134b3565b80601f0160208091040260200160405190810160405280929190818152602001828054610cee906134b3565b8015610d3b5780601f10610d1057610100808354040283529160200191610d3b565b820191906000526020600020905b815481529060010190602001808311610d1e57829003601f168201915b5050505050915050919050565b610d59610d536114b1565b83611572565b610d98576040517f08c379a0000000000000000000000000000000000000000000000000000000008152600401610d8f906131ff565b60405180910390fd5b610da484848484611ca0565b50505050565b60606000610dde610dba846118b7565b604051602001610dca9190612e09565b604051602081830303815290604052611a64565b9050600b8054905081610df1919061355f565b9050600b8181548110610e2d577f4e487b7100000000000000000000000000000000000000000000000000000000600052603260045260246000fd5b906000526020600020018054610e42906134b3565b80601f0160208091040260200160405190810160405280929190818152602001828054610e6e906134b3565b8015610ebb5780601f10610e9057610100808354040283529160200191610ebb565b820191906000526020600020905b815481529060010190602001808311610e9e57829003601f168201915b5050505050915050919050565b6060610ed382611445565b610f12576040517f08c379a0000000000000000000000000000000000000000000000000000000008152600401610f099061317f565b60405180910390fd5b6000600660008481526020019081526020016000208054610f32906134b3565b80601f0160208091040260200160405190810160405280929190818152602001828054610f5e906134b3565b8015610fab5780601f10610f8057610100808354040283529160200191610fab565b820191906000526020600020905b815481529060010190602001808311610f8e57829003601f168201915b505050505090506000610fbc611cfc565b9050600081511415610fd2578192505050611015565b600082511115611007578082604051602001610fef929190612d56565b60405160208183030381529060405292505050611015565b61101084611d13565b925050505b919050565b60006110266007611dba565b9050600b811061103557600080fd5b60006110408261073e565b9050600061104d83610c2a565b9050600061105a84610daa565b9050600061106785610a64565b90506000848484846040516020016110829493929190612d7a565b604051602081830303815290604052905060006008826040516020016110a9929190612db8565b60405160208183030381529060405290506110f86040518060400160405280601581526020017f0a2d2d2d2d2d205356472064617461202d2d2d2d2d0000000000000000000000815250611342565b61110181611342565b61113f6040518060400160405280601581526020017f2d2d2d2d2d2d2d2d2d2d2d2d2d2d2d2d2d2d2d2d0a0000000000000000000000815250611342565b60006111738361114e84611dc8565b60405160200161115f929190612e4d565b604051602081830303815290604052611dc8565b90506000816040516020016111889190612eb4565b60405160208183030381529060405290506111d76040518060400160405280601581526020017f0a2d2d2d2d2d20546f6b656e20555249202d2d2d2d0000000000000000000000815250611342565b6111e081611342565b61121e6040518060400160405280601581526020017f2d2d2d2d2d2d2d2d2d2d2d2d2d2d2d2d2d2d2d2d0a0000000000000000000000815250611342565b611228338a611f86565b6112328982611fa4565b611255604051806060016040528060258152602001613d1b602591398a33612018565b61125f60076120b7565b7f9e9e101732de0887d722bd72c01c5439edc857c9c2c763953d67e66de12441d3338a61128c6007611dba565b60405161129b93929190612f3d565b60405180910390a1505050505050505050565b6000600560008473ffffffffffffffffffffffffffffffffffffffff1673ffffffffffffffffffffffffffffffffffffffff16815260200190815260200160002060008373ffffffffffffffffffffffffffffffffffffffff1673ffffffffffffffffffffffffffffffffffffffff16815260200190815260200160002060009054906101000a900460ff16905092915050565b6113d8816040516024016113569190612f8f565b6040516020818303038152906040527f41304fac000000000000000000000000000000000000000000000000000000007bffffffffffffffffffffffffffffffffffffffffffffffffffffffff19166020820180517bffffffffffffffffffffffffffffffffffffffffffffffffffffffff83818316178352505050506120cd565b50565b60007f01ffc9a7000000000000000000000000000000000000000000000000000000007bffffffffffffffffffffffffffffffffffffffffffffffffffffffff1916827bffffffffffffffffffffffffffffffffffffffffffffffffffffffff1916149050919050565b60008073ffffffffffffffffffffffffffffffffffffffff166002600084815260200190815260200160002060009054906101000a900473ffffffffffffffffffffffffffffffffffffffff1673ffffffffffffffffffffffffffffffffffffffff1614159050919050565b600033905090565b816004600083815260200190815260200160002060006101000a81548173ffffffffffffffffffffffffffffffffffffffff021916908373ffffffffffffffffffffffffffffffffffffffff160217905550808273ffffffffffffffffffffffffffffffffffffffff1661152c836108fa565b73ffffffffffffffffffffffffffffffffffffffff167f8c5be1e5ebec7d5bd14f71427d1e84f3dd0314c0f7b2291e5b200ac8c7c3b92560405160405180910390a45050565b600061157d82611445565b6115bc576040517f08c379a00000000000000000000000000000000000000000000000000000000081526004016115b3906130bf565b60405180910390fd5b60006115c7836108fa565b90508073ffffffffffffffffffffffffffffffffffffffff168473ffffffffffffffffffffffffffffffffffffffff16148061163657508373ffffffffffffffffffffffffffffffffffffffff1661161e84610541565b73ffffffffffffffffffffffffffffffffffffffff16145b80611647575061164681856112ae565b5b91505092915050565b8273ffffffffffffffffffffffffffffffffffffffff16611670826108fa565b73ffffffffffffffffffffffffffffffffffffffff16146116c6576040517f08c379a00000000000000000000000000000000000000000000000000000000081526004016116bd9061303f565b60405180910390fd5b600073ffffffffffffffffffffffffffffffffffffffff168273ffffffffffffffffffffffffffffffffffffffff161415611736576040517f08c379a000000000000000000000000000000000000000000000000000000000815260040161172d9061307f565b60405180910390fd5b6117418383836120f6565b61174c6000826114b9565b6001600360008573ffffffffffffffffffffffffffffffffffffffff1673ffffffffffffffffffffffffffffffffffffffff168152602001908152602001600020600082825461179c91906133c9565b925050819055506001600360008473ffffffffffffffffffffffffffffffffffffffff1673ffffffffffffffffffffffffffffffffffffffff16815260200190815260200160002060008282546117f391906132e8565b92505081905550816002600083815260200190815260200160002060006101000a81548173ffffffffffffffffffffffffffffffffffffffff021916908373ffffffffffffffffffffffffffffffffffffffff160217905550808273ffffffffffffffffffffffffffffffffffffffff168473ffffffffffffffffffffffffffffffffffffffff167fddf252ad1be2c89b69c2b068fc378daa952ba7f163c4a11628f55a4df523b3ef60405160405180910390a46118b28383836120fb565b505050565b606060008214156118ff576040518060400160405280600181526020017f30000000000000000000000000000000000000000000000000000000000000008152509050611a5f565b600082905060005b6000821461193157808061191a90613516565b915050600a8261192a919061333e565b9150611907565b60008167ffffffffffffffff811115611973577f4e487b7100000000000000000000000000000000000000000000000000000000600052604160045260246000fd5b6040519080825280601f01601f1916602001820160405280156119a55781602001600182028036833780820191505090505b5090505b60008514611a58576001826119be91906133c9565b9150600a856119cd919061355f565b60306119d991906132e8565b60f81b818381518110611a15577f4e487b7100000000000000000000000000000000000000000000000000000000600052603260045260246000fd5b60200101907effffffffffffffffffffffffffffffffffffffffffffffffffffffffffffff1916908160001a905350600a85611a51919061333e565b94506119a9565b8093505050505b919050565b600081604051602001611a779190612d3f565b6040516020818303038152906040528051906020012060001c9050919050565b611b2f8282604051602401611aad929190612fb1565b6040516020818303038152906040527f9710a9d0000000000000000000000000000000000000000000000000000000007bffffffffffffffffffffffffffffffffffffffffffffffffffffffff19166020820180517bffffffffffffffffffffffffffffffffffffffffffffffffffffffff83818316178352505050506120cd565b5050565b8173ffffffffffffffffffffffffffffffffffffffff168373ffffffffffffffffffffffffffffffffffffffff161415611ba2576040517f08c379a0000000000000000000000000000000000000000000000000000000008152600401611b999061309f565b60405180910390fd5b80600560008573ffffffffffffffffffffffffffffffffffffffff1673ffffffffffffffffffffffffffffffffffffffff16815260200190815260200160002060008473ffffffffffffffffffffffffffffffffffffffff1673ffffffffffffffffffffffffffffffffffffffff16815260200190815260200160002060006101000a81548160ff0219169083151502179055508173ffffffffffffffffffffffffffffffffffffffff168373ffffffffffffffffffffffffffffffffffffffff167f17307eab39ab6107e8899845ad3d59bd9653f200f220920489ca2b5937696c3183604051611c939190612f74565b60405180910390a3505050565b611cab848484611650565b611cb784848484612100565b611cf6576040517f08c379a0000000000000000000000000000000000000000000000000000000008152600401611ced9061301f565b60405180910390fd5b50505050565b606060405180602001604052806000815250905090565b6060611d1e82611445565b611d5d576040517f08c379a0000000000000000000000000000000000000000000000000000000008152600401611d54906131bf565b60405180910390fd5b6000611d67611cfc565b90506000815111611d875760405180602001604052806000815250611db2565b80611d91846118b7565b604051602001611da2929190612d56565b6040516020818303038152906040525b915050919050565b600081600001549050919050565b60606000825190506000811415611df15760405180602001604052806000815250915050611f81565b60006003600283611e0291906132e8565b611e0c919061333e565b6004611e18919061336f565b90506000602082611e2991906132e8565b67ffffffffffffffff811115611e68577f4e487b7100000000000000000000000000000000000000000000000000000000600052604160045260246000fd5b6040519080825280601f01601f191660200182016040528015611e9a5781602001600182028036833780820191505090505b5090506000604051806060016040528060408152602001613d40604091399050600181016020830160005b86811015611f3e5760038101905062ffffff818a015116603f8160121c168401518060081b905060ff603f83600c1c1686015116810190508060081b905060ff603f8360061c1686015116810190508060081b905060ff603f831686015116810190508060e01b90508084526004840193505050611ec5565b506003860660018114611f585760028114611f6857611f73565b613d3d60f01b6002830352611f73565b603d60f81b60018303525b508484525050819450505050505b919050565b611fa0828260405180602001604052806000815250612297565b5050565b611fad82611445565b611fec576040517f08c379a0000000000000000000000000000000000000000000000000000000008152600401611fe39061313f565b60405180910390fd5b806006600084815260200190815260200160002090805190602001906120139291906124ef565b505050565b6120b283838360405160240161203093929190612fe1565b6040516020818303038152906040527fe3849f79000000000000000000000000000000000000000000000000000000007bffffffffffffffffffffffffffffffffffffffffffffffffffffffff19166020820180517bffffffffffffffffffffffffffffffffffffffffffffffffffffffff83818316178352505050506120cd565b505050565b6001816000016000828254019250508190555050565b60008151905060006a636f6e736f6c652e6c6f679050602083016000808483855afa5050505050565b505050565b505050565b60006121218473ffffffffffffffffffffffffffffffffffffffff166122f2565b1561228a578373ffffffffffffffffffffffffffffffffffffffff1663150b7a0261214a6114b1565b8786866040518563ffffffff1660e01b815260040161216c9493929190612ef1565b602060405180830381600087803b15801561218657600080fd5b505af19250505080156121b757506040513d601f19601f820116820180604052508101906121b49190612833565b60015b61223a573d80600081146121e7576040519150601f19603f3d011682016040523d82523d6000602084013e6121ec565b606091505b50600081511415612232576040517f08c379a00000000000000000000000000000000000000000000000000000000081526004016122299061301f565b60405180910390fd5b805181602001fd5b63150b7a0260e01b7bffffffffffffffffffffffffffffffffffffffffffffffffffffffff1916817bffffffffffffffffffffffffffffffffffffffffffffffffffffffff19161491505061228f565b600190505b949350505050565b6122a18383612315565b6122ae6000848484612100565b6122ed576040517f08c379a00000000000000000000000000000000000000000000000000000000081526004016122e49061301f565b60405180910390fd5b505050565b6000808273ffffffffffffffffffffffffffffffffffffffff163b119050919050565b600073ffffffffffffffffffffffffffffffffffffffff168273ffffffffffffffffffffffffffffffffffffffff161415612385576040517f08c379a000000000000000000000000000000000000000000000000000000000815260040161237c9061315f565b60405180910390fd5b61238e81611445565b156123ce576040517f08c379a00000000000000000000000000000000000000000000000000000000081526004016123c59061305f565b60405180910390fd5b6123da600083836120f6565b6001600360008473ffffffffffffffffffffffffffffffffffffffff1673ffffffffffffffffffffffffffffffffffffffff168152602001908152602001600020600082825461242a91906132e8565b92505081905550816002600083815260200190815260200160002060006101000a81548173ffffffffffffffffffffffffffffffffffffffff021916908373ffffffffffffffffffffffffffffffffffffffff160217905550808273ffffffffffffffffffffffffffffffffffffffff16600073ffffffffffffffffffffffffffffffffffffffff167fddf252ad1be2c89b69c2b068fc378daa952ba7f163c4a11628f55a4df523b3ef60405160405180910390a46124eb600083836120fb565b5050565b8280546124fb906134b3565b90600052602060002090601f01602090048101928261251d5760008555612564565b82601f1061253657805160ff1916838001178555612564565b82800160010185558215612564579182015b82811115612563578251825591602001919060010190612548565b5b5090506125719190612575565b5090565b5b8082111561258e576000816000905550600101612576565b5090565b60006125a56125a08461325f565b61323a565b9050828152602081018484840111156125bd57600080fd5b6125c8848285613471565b509392505050565b6000813590506125df81613cbe565b92915050565b6000813590506125f481613cd5565b92915050565b60008135905061260981613cec565b92915050565b60008151905061261e81613cec565b92915050565b600082601f83011261263557600080fd5b8135612645848260208601612592565b91505092915050565b60008135905061265d81613d03565b92915050565b60006020828403121561267557600080fd5b6000612683848285016125d0565b91505092915050565b6000806040838503121561269f57600080fd5b60006126ad858286016125d0565b92505060206126be858286016125d0565b9150509250929050565b6000806000606084860312156126dd57600080fd5b60006126eb868287016125d0565b93505060206126fc868287016125d0565b925050604061270d8682870161264e565b9150509250925092565b6000806000806080858703121561272d57600080fd5b600061273b878288016125d0565b945050602061274c878288016125d0565b935050604061275d8782880161264e565b925050606085013567ffffffffffffffff81111561277a57600080fd5b61278687828801612624565b91505092959194509250565b600080604083850312156127a557600080fd5b60006127b3858286016125d0565b92505060206127c4858286016125e5565b9150509250929050565b600080604083850312156127e157600080fd5b60006127ef858286016125d0565b92505060206128008582860161264e565b9150509250929050565b60006020828403121561281c57600080fd5b600061282a848285016125fa565b91505092915050565b60006020828403121561284557600080fd5b60006128538482850161260f565b91505092915050565b60006020828403121561286e57600080fd5b600061287c8482850161264e565b91505092915050565b61288e816133fd565b82525050565b61289d8161340f565b82525050565b60006128ae826132a5565b6128b881856132bb565b93506128c8818560208601613480565b6128d18161364c565b840191505092915050565b60006128e7826132b0565b6128f181856132cc565b9350612901818560208601613480565b61290a8161364c565b840191505092915050565b6000612920826132b0565b61292a81856132dd565b935061293a818560208601613480565b80840191505092915050565b60008154612953816134b3565b61295d81866132dd565b945060018216600081146129785760018114612989576129bc565b60ff198316865281860193506129bc565b61299285613290565b60005b838110156129b457815481890152600182019150602081019050612995565b838801955050505b50505092915050565b60006129d26032836132cc565b91506129dd8261365d565b604082019050919050565b60006129f56025836132cc565b9150612a00826136ac565b604082019050919050565b6000612a18600b836132dd565b9150612a23826136fb565b600b82019050919050565b6000612a3b601c836132cc565b9150612a4682613724565b602082019050919050565b6000612a5e600a836132dd565b9150612a698261374d565b600a82019050919050565b6000612a816024836132cc565b9150612a8c82613776565b604082019050919050565b6000612aa46019836132cc565b9150612aaf826137c5565b602082019050919050565b6000612ac76063836132dd565b9150612ad2826137ee565b606382019050919050565b6000612aea600b836132dd565b9150612af582613889565b600b82019050919050565b6000612b0d602c836132cc565b9150612b18826138b2565b604082019050919050565b6000612b30600d836132dd565b9150612b3b82613901565b600d82019050919050565b6000612b536038836132cc565b9150612b5e8261392a565b604082019050919050565b6000612b76602a836132cc565b9150612b8182613979565b604082019050919050565b6000612b996029836132cc565b9150612ba4826139c8565b604082019050919050565b6000612bbc602e836132cc565b9150612bc782613a17565b604082019050919050565b6000612bdf6002836132dd565b9150612bea82613a66565b600282019050919050565b6000612c026020836132cc565b9150612c0d82613a8f565b602082019050919050565b6000612c256031836132cc565b9150612c3082613ab8565b604082019050919050565b6000612c48602c836132cc565b9150612c5382613b07565b604082019050919050565b6000612c6b602f836132cc565b9150612c7682613b56565b604082019050919050565b6000612c8e600a836132dd565b9150612c9982613ba5565b600a82019050919050565b6000612cb16021836132cc565b9150612cbc82613bce565b604082019050919050565b6000612cd4600a836132dd565b9150612cdf82613c1d565b600a82019050919050565b6000612cf7601d836132dd565b9150612d0282613c46565b601d82019050919050565b6000612d1a6031836132cc565b9150612d2582613c6f565b604082019050919050565b612d3981613467565b82525050565b6000612d4b8284612915565b915081905092915050565b6000612d628285612915565b9150612d6e8284612915565b91508190509392505050565b6000612d868287612915565b9150612d928286612915565b9150612d9e8285612915565b9150612daa8284612915565b915081905095945050505050565b6000612dc48285612946565b9150612dd08284612915565b9150612ddb82612b23565b91508190509392505050565b6000612df282612a0b565b9150612dfe8284612915565b915081905092915050565b6000612e1482612a51565b9150612e208284612915565b915081905092915050565b6000612e3682612add565b9150612e428284612915565b915081905092915050565b6000612e5882612c81565b9150612e648285612915565b9150612e6f82612aba565b9150612e7b8284612915565b9150612e8682612bd2565b91508190509392505050565b6000612e9d82612cc7565b9150612ea98284612915565b915081905092915050565b6000612ebf82612cea565b9150612ecb8284612915565b915081905092915050565b6000602082019050612eeb6000830184612885565b92915050565b6000608082019050612f066000830187612885565b612f136020830186612885565b612f206040830185612d30565b8181036060830152612f3281846128a3565b905095945050505050565b6000606082019050612f526000830186612885565b612f5f6020830185612d30565b612f6c6040830184612d30565b949350505050565b6000602082019050612f896000830184612894565b92915050565b60006020820190508181036000830152612fa981846128dc565b905092915050565b60006040820190508181036000830152612fcb81856128dc565b9050612fda6020830184612d30565b9392505050565b60006060820190508181036000830152612ffb81866128dc565b905061300a6020830185612d30565b6130176040830184612885565b949350505050565b60006020820190508181036000830152613038816129c5565b9050919050565b60006020820190508181036000830152613058816129e8565b9050919050565b6000602082019050818103600083015261307881612a2e565b9050919050565b6000602082019050818103600083015261309881612a74565b9050919050565b600060208201905081810360008301526130b881612a97565b9050919050565b600060208201905081810360008301526130d881612b00565b9050919050565b600060208201905081810360008301526130f881612b46565b9050919050565b6000602082019050818103600083015261311881612b69565b9050919050565b6000602082019050818103600083015261313881612b8c565b9050919050565b6000602082019050818103600083015261315881612baf565b9050919050565b6000602082019050818103600083015261317881612bf5565b9050919050565b6000602082019050818103600083015261319881612c18565b9050919050565b600060208201905081810360008301526131b881612c3b565b9050919050565b600060208201905081810360008301526131d881612c5e565b9050919050565b600060208201905081810360008301526131f881612ca4565b9050919050565b6000602082019050818103600083015261321881612d0d565b9050919050565b60006020820190506132346000830184612d30565b92915050565b6000613244613255565b905061325082826134e5565b919050565b6000604051905090565b600067ffffffffffffffff82111561327a5761327961361d565b5b6132838261364c565b9050602081019050919050565b60008190508160005260206000209050919050565b600081519050919050565b600081519050919050565b600082825260208201905092915050565b600082825260208201905092915050565b600081905092915050565b60006132f382613467565b91506132fe83613467565b9250827fffffffffffffffffffffffffffffffffffffffffffffffffffffffffffffffff0382111561333357613332613590565b5b828201905092915050565b600061334982613467565b915061335483613467565b925082613364576133636135bf565b5b828204905092915050565b600061337a82613467565b915061338583613467565b9250817fffffffffffffffffffffffffffffffffffffffffffffffffffffffffffffffff04831182151516156133be576133bd613590565b5b828202905092915050565b60006133d482613467565b91506133df83613467565b9250828210156133f2576133f1613590565b5b828203905092915050565b600061340882613447565b9050919050565b60008115159050919050565b60007fffffffff0000000000000000000000000000000000000000000000000000000082169050919050565b600073ffffffffffffffffffffffffffffffffffffffff82169050919050565b6000819050919050565b82818337600083830152505050565b60005b8381101561349e578082015181840152602081019050613483565b838111156134ad576000848401525b50505050565b600060028204905060018216806134cb57607f821691505b602082108114156134df576134de6135ee565b5b50919050565b6134ee8261364c565b810181811067ffffffffffffffff8211171561350d5761350c61361d565b5b80604052505050565b600061352182613467565b91507fffffffffffffffffffffffffffffffffffffffffffffffffffffffffffffffff82141561355457613553613590565b5b600182019050919050565b600061356a82613467565b915061357583613467565b925082613585576135846135bf565b5b828206905092915050565b7f4e487b7100000000000000000000000000000000000000000000000000000000600052601160045260246000fd5b7f4e487b7100000000000000000000000000000000000000000000000000000000600052601260045260246000fd5b7f4e487b7100000000000000000000000000000000000000000000000000000000600052602260045260246000fd5b7f4e487b7100000000000000000000000000000000000000000000000000000000600052604160045260246000fd5b6000601f19601f8301169050919050565b7f4552433732313a207472616e7366657220746f206e6f6e20455243373231526560008201527f63656976657220696d706c656d656e7465720000000000000000000000000000602082015250565b7f4552433732313a207472616e736665722066726f6d20696e636f72726563742060008201527f6f776e6572000000000000000000000000000000000000000000000000000000602082015250565b7f464f555254485f574f5244000000000000000000000000000000000000000000600082015250565b7f4552433732313a20746f6b656e20616c7265616479206d696e74656400000000600082015250565b7f54484952445f574f524400000000000000000000000000000000000000000000600082015250565b7f4552433732313a207472616e7366657220746f20746865207a65726f2061646460008201527f7265737300000000000000000000000000000000000000000000000000000000602082015250565b7f4552433732313a20617070726f766520746f2063616c6c657200000000000000600082015250565b7f222c20226465736372697074696f6e223a20224120686967686c79206163636c60008201527f61696d656420636f6c6c656374696f6e206f6620737175617265732e222c202260208201527f696d616765223a2022646174613a696d6167652f7376672b786d6c3b6261736560408201527f36342c0000000000000000000000000000000000000000000000000000000000606082015250565b7f5345434f4e445f574f5244000000000000000000000000000000000000000000600082015250565b7f4552433732313a206f70657261746f7220717565727920666f72206e6f6e657860008201527f697374656e7420746f6b656e0000000000000000000000000000000000000000602082015250565b7f3c2f746578743e3c2f7376673e00000000000000000000000000000000000000600082015250565b7f4552433732313a20617070726f76652063616c6c6572206973206e6f74206f7760008201527f6e6572206e6f7220617070726f76656420666f7220616c6c0000000000000000602082015250565b7f4552433732313a2062616c616e636520717565727920666f7220746865207a6560008201527f726f206164647265737300000000000000000000000000000000000000000000602082015250565b7f4552433732313a206f776e657220717565727920666f72206e6f6e657869737460008201527f656e7420746f6b656e0000000000000000000000000000000000000000000000602082015250565b7f45524337323155524953746f726167653a2055524920736574206f66206e6f6e60008201527f6578697374656e7420746f6b656e000000000000000000000000000000000000602082015250565b7f227d000000000000000000000000000000000000000000000000000000000000600082015250565b7f4552433732313a206d696e7420746f20746865207a65726f2061646472657373600082015250565b7f45524337323155524953746f726167653a2055524920717565727920666f722060008201527f6e6f6e6578697374656e7420746f6b656e000000000000000000000000000000602082015250565b7f4552433732313a20617070726f76656420717565727920666f72206e6f6e657860008201527f697374656e7420746f6b656e0000000000000000000000000000000000000000602082015250565b7f4552433732314d657461646174613a2055524920717565727920666f72206e6f60008201527f6e6578697374656e7420746f6b656e0000000000000000000000000000000000602082015250565b7f7b226e616d65223a202200000000000000000000000000000000000000000000600082015250565b7f4552433732313a20617070726f76616c20746f2063757272656e74206f776e6560008201527f7200000000000000000000000000000000000000000000000000000000000000602082015250565b7f46495253545f574f524400000000000000000000000000000000000000000000600082015250565b7f646174613a6170706c69636174696f6e2f6a736f6e3b6261736536342c000000600082015250565b7f4552433732313a207472616e736665722063616c6c6572206973206e6f74206f60008201527f776e6572206e6f7220617070726f766564000000000000000000000000000000602082015250565b613cc7816133fd565b8114613cd257600080fd5b50565b613cde8161340f565b8114613ce957600080fd5b50565b613cf58161341b565b8114613d0057600080fd5b50565b613d0c81613467565b8114613d1757600080fd5b5056fe416e204e465420772f20494420257320686173206265656e206d696e74656420746f2025734142434445464748494a4b4c4d4e4f505152535455565758595a6162636465666768696a6b6c6d6e6f707172737475767778797a303132333435363738392b2fa264697066735822122015b88be9bd57dc4d62a49782f133de0686a51317385f472870f42ac80c2962dc64736f6c634300080400333c73766720786d6c6e733d27687474703a2f2f7777772e77332e6f72672f323030302f73766727207072657365727665417370656374526174696f3d27784d696e594d696e206d656574272076696577426f783d273020302033353020333530273e3c7374796c653e2e62617365207b2066696c6c3a2077686974653b20666f6e742d66616d696c793a2073657269663b20666f6e742d73697a653a20323470783b207d3c2f7374796c653e3c726563742077696474683d273130302527206865696768743d2731303025272066696c6c3d27626c61636b27202f3e3c7465787420783d273530252720793d273530252720636c6173733d27626173652720646f6d696e616e742d626173656c696e653d276d6964646c652720746578742d616e63686f723d276d6964646c65273e",
    "linkReferences": {},
    "deployedLinkReferences": {}
}